:020000040800F2
:100000002804002001010008AD090008310500089E
:10001000C1070008CF020008ED0F00080000000033
:100020000000000000000000000000009D0E00081D
:1000300027030008000000004D0D0008890F00088C
:100040001B0100081B0100081B0100081B01000820
:100050001B0100081B0100081B0100081B01000810
:100060001B0100081B0100081B0100081B01000800
:100070001B0100081B0100081B0100081B010008F0
:100080001B0100081B0100081B0100081B010008E0
:100090001B0100081B0100081B0100081B010008D0
:1000A0001B0100081B0100081B0100081B010008C0
:1000B0001B0100081B0100081B0100081B010008B0
:1000C0001B0100081B0100081B0100081B010008A0
:1000D0001B0100081B0100081B0100081B01000890
:1000E0001B0100081B0100081B010008DFF80CD0F1
:1000F00000F018F800480047E51000082804002028
:100100000648804706480047FEE7FEE7FEE7FEE7B1
:10011000FEE7FEE7FEE7FEE7FEE7FEE78D0F0008DD
:10012000ED000008064C074D06E0E06840F00103D2
:1001300094E8070098471034AC42F6D3FFF7DAFF93
:10014000681800088818000821B1826842F001028E
:10015000826003E0826822F001028260704721B170
:10016000826842F48072826003E0826822F48072C6
:1001700082607047014600208A6802F004020AB1DA
:10018000012000E000207047014600208A6802F04C
:1001900008020AB1012000E00020704730B5024695
:1001A0000020002350680F4C20400D790C6844EA71
:1001B00005242043506090680B4C2040D1E9025444
:1001C0002C434D7944EA450420439060D06A20F4E2
:1001D00070000C7C641EE4B2234340EA0350D062FA
:1001E00030BD0000FFFEF0FFFDF7F1FFF0B5044663
:1001F0000D4600200021092D11DDE068A5F10A0659
:1002000006EB4607072606FA07F18843A5F10A061A
:1002100006EB460603FA06F10843E0600CE02069AD
:1002200005EB4507072606FA07F1884305EB450667
:1002300003FA06F108432061072A0FDA606B561EA5
:1002400006EB86071F2606FA07F18843561E06EBC3
:10025000860605FA06F10843606322E00D2A0FDAEC
:10026000206BD61F06EB86071F2606FA07F1884388
:10027000D61F06EB860605FA06F10843206310E058
:10028000E06AA2F10D0606EB86071F2606FA07F1C3
:100290008843A2F10D0606EB860605FA06F108432F
:1002A000E062F0BD816841F008018160704721B1D2
:1002B000826842F4A002826003E0826822F4A00215
:1002C00082607047816841F004018160704700BF1F
:1002D000FEE721B1026842F00102026004E0026818
:1002E0004FF6FE731A400260704710B50022026894
:1002F00047F6F0739A430C6A8B6823430C692343D7
:100300004C6923438C692343CC6923434C6A2343C0
:100310008C6A23431A430260CB6843600B68836096
:100320004B68C36010BD704700B5034603E04FF44F
:100330007A7000F005F8181EA3F10103F7D100BD93
:1003400000EBC001C9004FF0E02251610021916132
:100350000521116100BF4FF0E021096901F48031EE
:100360000029F8D004214FF0E022116170472DE9F7
:10037000F04102460025002600200023002400272B
:1003800091F803C00CF00F0591F803C00CF0100CAD
:10039000BCF1000F03D091F802C04CEA050591F8BA
:1003A00000C0BCF1000F31D0146800202BE04FF0EA
:1003B000010C0CFA00F3B1F800C00CEA03069E42EF
:1003C00020D183004FF00F0C0CFA03F7BC4305FA61
:1003D00003FC4CEA040491F803C0BCF1280F06D1D9
:1003E0004FF0010C0CFA00FCC2F814C00AE091F8BE
:1003F00003C0BCF1480F05D14FF0010C0CFA00FC12
:10040000C2F810C0401C0828D1D31460B1F800C055
:10041000BCF1FF0F34DD546800202EE000F1080C21
:100420004FF0010808FA0CF3B1F800C00CEA03061B
:100430009E4221D183004FF00F0C0CFA03F7BC430E
:1004400005FA03FC4CEA040491F803C0BCF1280F40
:1004500005D100F1080C08FA0CF8C2F8148091F8E4
:1004600003C0BCF1480F07D100F1080C4FF00108A0
:1004700008FA0CF8C2F81080401C0828CED354604B
:10048000BDE8F081F0B50A460023002400210025D4
:1004900000F00046B6F1004F02D11D4EF16901E0B7
:1004A0001B4E7168C0F3034583B200F44016B6F5E5
:1004B000401F08D121F07061154E766826F07066F5
:1004C000134F7E6012E000F48016B6F5801F06D14F
:1004D000032606FA05F4A14341F0706106E0460DDB
:1004E000360103FA06F6B14341F0706122B1460DC0
:1004F000360103FA06F6314300F00046B6F1004F2C
:1005000002D1034EF16101E0014E7160F0BD0000C7
:10051000000001400246002093680B400BB101200F
:1005200000E0002070470AB1016100E041617047BE
:1005300000BFFEE770B5024600240025002300201E
:10054000958A138B1B0445EA030626F07F4404EAD0
:1005500001068E4201D1012000E0002070BD21B1D2
:10056000028842F00102028004E002884FF6FE7326
:100570001A400280704770B505460E4642F210746C
:1005800003E0601E84B204B905E031462846FFF757
:10059000D1FF0128F5D100BF70BD21B1028842F41E
:1005A0008072028004E002884FF6FF631A400280E6
:1005B000704700002DE9F04385B004460D46002643
:1005C000B1460427DFF8CC80A6884FF6C0700640FD
:1005D000684600F0F9FBDDF808802F48B8FBF0F022
:1005E0001FFA80F946EA0906A68020884FF6FE71B8
:1005F0000840208000262949286888420CD82868AD
:100600004000B8FBF0F087B2042F00DA04273E4325
:1006100009F10100208427E0E8884BF6FF71884249
:1006200006D1286800EB4000B8FBF0F087B209E083
:10063000286800EBC00101EB0010B8FBF0F087B2B6
:1006400047F48047C7F30B0008B947F0010747F4A8
:10065000004006434FF4967009FB00F04FF47A71A6
:1006600090FBF1F0401C2084A683208840F001001C
:10067000208026884FF6F5300640A888698908430F
:1006800006432680A88929890843208105B0BDE852
:10069000F083000000127A0040420F00A0860100A3
:1006A00012B141F0010102E04FF6FE7319400182E0
:1006B000704701827047000010B500244FF40041DC
:1006C0002B48FFF727FF78B91420FFF72DFE00BF56
:1006D0004FF400412648FFF71DFF0028F8D01420F2
:1006E000FFF722FE012440E04FF480412048FFF74D
:1006F00011FF78B91420FFF717FE00BF4FF48041B7
:100700001B48FFF707FF0028F8D01420FFF70CFE66
:1007100002242AE04FF400511548FFF7FBFE78B998
:100720001420FFF701FE00BF4FF400511048FFF7FF
:10073000F1FE0028F8D01420FFF7F6FD032414E0A2
:100740004FF480510A48FFF7E5FE70B91420FFF717
:10075000EBFD00BF4FF480510548FFF7DBFE00289A
:10076000F8D01420FFF7E0FD0424204610BD00005F
:100770000008014008B50121042000F015FB01210B
:10078000084600F011FB01210A48FFF77BFE01211A
:100790000948FFF777FE48208DF803004FF47040BA
:1007A000ADF8000003208DF8020069460348FFF70A
:1007B000DEFD08BD000230000004300000080140EA
:1007C00000BFFEE700B591B00121480200F0ECFA4D
:1007D0000121042000F0E8FA0121084600F0C4FAE3
:1007E0004FF4404000F0B4FA00208DF84300082098
:1007F000ADF8400003208DF8420010A92E48FFF705
:10080000B6FD0023012203212C48FFF7EFFC012055
:100810008DF8310000200E904FF460200D900020E4
:100820000B9001208DF83C0000208DF830000BA9C2
:100830002248FFF7B3FC01200390002002900A90A9
:100840001F4801904FF48060079000200590202001
:1008500008901A484C3000908015069000200490B3
:100860004FF48050099069461648FFF73EFD01217C
:100870001248FFF769FC01211048FFF770FC0121C5
:100880001048FFF726FD0D48FFF70CFD00BF0B4891
:10089000FFF77AFC0128FAD00848FFF713FD00BFE4
:1008A0000648FFF767FC0128FAD001210348FFF74B
:1008B000FEFC11B000BD0000000801400024014012
:1008C000140000200800024008B50121042000F0B7
:1008D0006BFA10208DF80300B020ADF80000032063
:1008E0008DF8020069460B48FFF741FD48208DF85E
:1008F00003004020ADF8000003208DF80200694697
:100900000448FFF734FD012000F032F8002000F029
:1009100043F808BD0008014010B540210148FFF729
:10092000F9FD10BD0008014010B5002000F020F8CE
:1009300010BD10B5012000F01BF810BD70B50446C5
:100940000026002510E004F0800000F01BF860068F
:10095000040E012000F020F8FFF7DEFF0443002022
:1009600000F01AF8681CC5B2082DECDB204670BDFB
:1009700010B50446224610210148FFF7D4FD10BDF2
:100980000008014010B50446224680210148FFF7C7
:10099000CAFD10BD0008014010B5044622462021C2
:1009A0000148FFF7C0FD10BD00080140704770B559
:1009B00000240EE00021204600F0DFF8002504E0CE
:1009C000002000F049F9681CC5B2802DF8DB601CDE
:1009D000C4B2082CEEDB70BD08B50121082000F080
:1009E000E3F914208DF8030003208DF80200402065
:1009F000ADF8000069460A48FFF7B9FC8020ADF861
:100A0000000069460648FFF7B2FC01224021044875
:100A1000FFF789FD012280210148FFF784FD08BD11
:100A2000000C014070B50546002413E080202041F1
:100A300000EA050280210E48FFF775FD01224021E2
:100A40000B48FFF770FD002240210948FFF76BFDBE
:100A5000601CC4B2082CE9DB012240210448FFF7E6
:100A600062FD002240210248FFF75DFD70BD0000DD
:100A7000000C014010B5012280210948FFF753FD09
:100A8000012240210648FFF74EFD00228021044844
:100A9000FFF749FD002240210148FFF744FD10BD4A
:100AA000000C014010B5002280210748FFF73BFDF4
:100AB000012240210448FFF736FD0122802102482F
:100AC000FFF731FD10BD0000000C014070B500249F
:100AD00006E0002500E06D1CB5F57A7FFBD3641CB1
:100AE000B4F57A7FF5D3FFF777FFAE2000F0A4F8D6
:100AF000D52000F0A1F8802000F09EF8A82000F09A
:100B00009BF83F2000F098F8D32000F095F80020E3
:100B100000F092F8402000F08FF8A12000F08CF84F
:100B2000C82000F089F8DA2000F086F8122000F0E2
:100B300083F8812000F080F8CF2000F07DF8D920E4
:100B400000F07AF8F12000F077F8DB2000F074F87C
:100B5000302000F071F8A42000F06EF8A62000F01C
:100B60006BF88D2000F068F8142000F065F8AF20D5
:100B700000F062F8FFF71BFF70BD70B505460C462C
:100B800045F0B00000F058F8102141EA141000F0D0
:100B900053F804F00F0000F04FF870BD2DE9F0415C
:100BA00005460E461746721ED206110E6A1E5206E2
:100BB000100EFFF7E2FF002409E0A7F12001134A1D
:100BC00002EB0111085D00F047F8601CC4B2082C6C
:100BD000F3DB721ED206110E6A1E012303EB4202E2
:100BE000D0B2FFF7CAFF00240BE0A7F12001074AAB
:100BF00002EB011204F10801505C00F02DF8601CBA
:100C0000C4B2082CF1DBBDE8F081000078120008C6
:100C10002DE9F04107460E461546002407E02A5DFF
:100C20003019C1B23846FFF7B9FF601CC4B2285D65
:100C30000028F4D1BDE8F08110B50446FFF71AFF93
:100C40007820FFF7EFFE0020FFF7ECFE2046FFF7CD
:100C5000E9FEFFF727FF10BD10B50446FFF70AFFB6
:100C60007820FFF7DFFE4020FFF7DCFE2046FFF78D
:100C7000D9FEFFF717FF10BD10B504462146044802
:100C8000FFF717FD03490248FFF775FC10BD000090
:100C9000005800408000070010B501210C48FFF704
:100CA0007CFC0C490A48FFF766FC002290210848AA
:100CB000FFF7F6FC08490648FFF75DFC40210448B1
:100CC000FFF7F7FC0449891E0148FFF754FC10BDEB
:100CD00000580040010003008200070000B585B005
:100CE0000121082000F060F80121880500F04CF88F
:100CF0001C208DF813004FF44060ADF81000032065
:100D00008DF8120004A90E48FFF731FB4FF4806004
:100D1000ADF80A000001ADF80C000A4800904FF44D
:100D20008040ADF806000020ADF804006946064892
:100D3000FFF740FC01210448FFF711FC05B000BD9E
:100D4000000C0140801A0600005800407047000067
:100D500001460020034A506820F440400843506098
:100D6000704700000010024029B1064A5269024350
:100D7000044B5A6104E0034A52698243014B5A61B1
:100D8000704700000010024029B1064AD2690243B0
:100D9000044BDA6104E0034AD2698243014BDA6111
:100DA000704700000010024029B1064A92690243D0
:100DB000044B9A6104E0034A92698243014B9A61B1
:100DC000704700000010024030B5002100220024CE
:100DD00000232D4D6D6805F00C0121B1042905D0CB
:100DE000082923D105E0294D056022E0274D056043
:100DF0001FE0254D6D6805F47012234D6D6805F4F4
:100E00008034022505EB92421CB9214D5543056003
:100E10000BE01D4D6D6805F400351DB11C4D5543AB
:100E2000056002E0194D5543056002E0174D05606D
:100E300000BF00BF144D6D6805F0F0010909154DA4
:100E40006B5C0568DD4045600F4D6D6805F4E06141
:100E5000090A104D6B5C4568DD4085600A4D6D6880
:100E600005F46051C90A0B4D6B5C4568DD40C560F7
:100E7000054D6D6805F44041890B074D6B5CC568F5
:100E8000B5FBF3F5056130BD0010024000127A0099
:100E900000093D000000002010000020704710B540
:100EA00000F002F810BD00000CB500200190009089
:100EB0003348006840F480303149086000BF304852
:100EC000006800F4003000900198401C01900098E8
:100ED00018B90198B0F5A06FF1D12948006800F465
:100EE000003010B10120009001E000200090009837
:100EF000012843D12348006840F0100021490860D0
:100F00000846006820F0030008600846006840F0CA
:100F1000020008601A48406819494860084640685D
:100F200048600846406840F4806048600846406871
:100F300020F47C1048600846406840F4E81048609F
:100F40000846006840F08070086000BF0C480068E8
:100F500000F000700028F9D00948406820F0030034
:100F6000074948600846406840F00200486000BFFA
:100F70000348406800F00C000828F9D10CBD0000BF
:100F800000100240002002407047000010B51348D6
:100F9000006840F0010011490860084640681049A7
:100FA00008400E494860084600680E4908400B4951
:100FB00008600846006820F4802008600846406801
:100FC00020F4FE0048604FF41F008860FFF767FFC1
:100FD0004FF000600449086010BD0000001002409E
:100FE0000000FFF8FFFFF6FE08ED00E000BFFEE79F
:100FF00010B500F05EF8FFF797FCC720FFF79EFCE6
:10100000FFF797FC00F020F810BD10B5FFF75CFC6F
:1010100010BD70B504460025FFF786FC0320FFF7DE
:101020008DFCC4F30740FFF789FCC4F30720FFF7EA
:1010300085FCE0B2FFF782FCFF20FFF77FFC05464E
:10104000FFF777FC284670BD10B542F21074FFF729
:101050006BFC0520FFF772FC03E0601E84B204B94C
:1010600006E0FF20FFF76AFC00F001000028F4D141
:1010700000BFFFF75EFC10BD70B504460D46FFF7DC
:10108000E3FF00F016F8FFF74FFC0220FFF756FCD5
:10109000C4F30740FFF752FCC4F30720FFF74EFCF0
:1010A000E0B2FFF74BFC2846FFF748FCFFF741FC96
:1010B00070BD10B5FFF738FC0620FFF73FFCFFF7C7
:1010C00038FC10BD02E008C8121F08C1002AFAD17E
:1010D00070477047002001E001C1121F002AFBD1B8
:1010E00070470000FFF76EFBFFF7F0FCFFF742FBD5
:1010F000FFF78BFFFFF7F2FD93E0FFF7DDFA4949B9
:1011000008700846007801280ED1FFF750FC46A26F
:1011100001210846FFF77CFD4648007808B9012008
:1011200000E00020434908703E48007802280BD1B7
:10113000FFF7B2FDFFF73BFC3FA201210846FFF796
:1011400067FD01203F4908703648007804280DD11A
:10115000FFF72DFCFFF74CFF00203B4908603B499F
:1011600008603BA201210846FFF752FD28E0FFF787
:10117000A3FA2C49087039480488E01704EB107072
:10118000C0F3071130480068FFF776FF2E4800686B
:10119000401C2D49086008460068B0F5000F03D0D8
:1011A0002048007803280BD10020274908602149F6
:1011B0000870FFF7FCFB2AA201210846FFF728FD73
:1011C0001C4800780128D2D027E0FFF775FA1549AE
:1011D00008701E480068FFF71CFF0446FFF74CFD2F
:1011E0001A480068401C194908603C20FFF7A8F81D
:1011F00016480068B0F5000F03D00A4800780328AD
:101200000BD100200F49087010490860FFF7CFFB91
:1012100016A201210846FFF7FBFC0A4800780128C6
:10122000D3D06AE71A00002057726974696E672E7E
:101230002E2E000018000020506C6179696E672E18
:101240002E2E0000190000201C000020200000208D
:1012500044656C657465204F4B210000140000202C
:101260005772697465204F4B21000000506C617902
:10127000204F4B2100000000000000000000000093
:101280000000000000000000000000F80000000066
:10129000000000333000000000100C06100C0600A7
:1012A000000000000000000040C07840C07840000E
:1012B000043F04043F040400007088FC0830000070
:1012C000001820FF211E0000F008F000E0180000C8
:1012D00000211C031E211E0000F008887000000081
:1012E0001E2123241927211010160E0000000000D3
:1012F0000000000000000000000000E018040200F0
:10130000000000071820400000020418E000000060
:101310000040201807000000404080F0804040005E
:101320000202010F01020200000000F000000000B4
:101330000101011F01010100000000000000000088
:1013400080B07000000000000000000000000000FD
:101350000001010101010101000000000000000086
:101360000030300000000000000000008060180421
:10137000006018060100000000E010080810E000FE
:10138000000F102020100F00001010F800000000C7
:101390000020203F2020000000700808088870000E
:1013A000003028242221300000300888884830008E
:1013B0000018202020110E000000C02010F80000AE
:1013C00000070424243F240000F808888808080047
:1013D0000019212020110E0000E01088881800005C
:1013E000000F112020110E0000380808C83808002E
:1013F0000000003F000000000070880808887000AE
:10140000001C222121221C0000E010080810E0002E
:101410000000312222110F00000000C0C0000000B7
:1014200000000030300000000000008000000000DC
:1014300000008060000000000000804020100800D4
:10144000000102040810200040404040404040009D
:101450000404040404040400000810204080000078
:101460000020100804020100007048080808F0007D
:101470000000003036010000C030C828E810E0004D
:101480000718272423140B000000C038E0000000D8
:10149000203C23020227382008F888888870000042
:1014A000203F202020110E00C03008080808380016
:1014B000071820202010080008F808080810E0008D
:1014C000203F202020100F0008F88888E80810002E
:1014D000203F20202320180008F88888E808100002
:1014E000203F200003000000C0300808083800003A
:1014F00007182020221E020008F808000008F8083B
:10150000203F210101213F20000808F808080000C1
:101510000020203F2020000000000808F8080800F4
:10152000C08080807F00000008F888C0281808006C
:10153000203F20012638200008F8080000000000A5
:10154000203F20202020300008F8F800F8F808009C
:10155000203F003F003F200008F830C00008F80896
:10156000203F200007183F00E01008080810E000A6
:101570000F10202020100F0008F808080808F000BD
:10158000203F210101010000E01008080810E000E0
:101590000F18242438504F0008F888888888700075
:1015A000203F2000030C3020007088080808380015
:1015B0000038202121221C00180808F8080818000B
:1015C0000000203F2000000008F808000008F8088C
:1015D000001F202020201F000878880000C838083D
:1015E000000007380E010000F80800F80008F800B5
:1015F000033C0700073C030008186880806818084F
:1016000020302C03032C30200838C800C8380800CC
:101610000000203F2000000010080808C83808001B
:101620002038262120201800000000FE02020200BF
:101630000000007F40404000000C30C0000000006F
:10164000000000010638C00000020202FE00000097
:10165000004040407F00000000000402020204003D
:10166000000000000000000000000000000000007A
:101670008080808080808080000202040000000062
:10168000000000000000000000008080808000005A
:101690000019242222223F2008F800808000000048
:1016A000003F112020110E0000000080808000000B
:1016B000000E112020201100000000808088F8001A
:1016C000000E112020103F2000008080808000004C
:1016D000001F222222221300008080F088888818B0
:1016E0000020203F202000000000808080808000BB
:1016F000006B94949493600008F800808080000050
:10170000203F210000203F2000809898000000002A
:101710000020203F2020000000000080989800005A
:1017200000C08080807F000008F80000808080007A
:10173000203F24022D302000000808F8000000009F
:101740000020203F2020000080808080808080005A
:10175000203F20003F20003F8080008080800000EC
:10176000203F210000203F2000008080808000007A
:10177000001F202020201F008080008080000000AB
:1017800080FFA12020110E000000008080808000DA
:10179000000E112020A0FF808080800080808000CB
:1017A00020203F21200001000000808080808000F8
:1017B0000033242424241900008080E0808000006D
:1017C0000000001F202000008080000000808000BA
:1017D000001F202020103F2080808000008080801B
:1017E00000010E30080601008080008000808080AB
:1017F0000F300C030C300F000080800080808000D0
:101800000020312E0E3120008080800000808080FA
:1018100080818E70180601000080808080808000AA
:101820000021302C2221300000000000807C0202C8
:1018300000000000003F404000000000FF000000EA
:1018400000000000FF0000000002027C8000000099
:101850000040403F000000000006010102020404B5
:1018600000000000000000008818000800000020B0
:1018700024000000C4100008AC1800082400002058
:1018800004040000D410000800000000010203045A
:10189000010203040607080902040608000000000C
:0C18A0000000000000000000000000003C
:04000005080000ED02
:00000001FF
